:020000040800F2
:10000000000002205909000855090008CD5C0008CD
:1000100055090008550900085509000800000000AE
:10002000000000000000000000000000550900086A
:10003000550900080000000055090008515C00083F
:100040005509000855090008550900085509000818
:100050005509000855090008550900085509000808
:10006000550900085509000855090008794A000893
:10007000854A0008D5390008914A00089D4A0008C1
:1000800051590008A93F0008550900085509000802
:1000900055090008550900085509000855090008C8
:1000A00055090008550900085509000855090008B8
:1000B0009D0E0108A90E0108B50E0108DD3F0008DC
:1000C00055090008E93F0008550900080D07010817
:1000D0001907010885570008B5570008E9570008B7
:1000E00055090008550900080000000055090008DE
:1000F0005509000855090008550900085509000868
:100100005509000855090008C10E01082507010816
:100110001D580008515800085509000855090008E5
:100120005509000855090008490701087D0701081D
:1001300085590008550900085509000855090008A7
:1001400000000000000000000000000000000000AF
:100150005509000855090008550900088558000888
:10016000F53F000855090008615C0008855C00083F
:1001700055090008A95C0008550900085509000840
:100180005509000855090008B9580008E958000841
:10019000310701083D070108550900085509000805
:1001A00055090008550900085509000855090008B7
:1001B0009947000855090008550900085509000825
:1001C0005509000855090008550900085509000897
:1001D0005509000855090008550900085509000887
:1001E0005509000855090008550900085509000877
:1001F0005509000855090008550900085509000867
:100200005509000855090008550900085509000856
:100210005509000855090008550900085509000846
:10022000550900085509000855090008000000009C
:10023000550900085509000800000000550900088C
:100240005509000855090008550900085509000816
:100250005509000855090008550900085509000806
:1002600055090008550900085509000855090008F6
:1002700055090008550900081D5900080000000034
:10028000550900085509000855090008000000003C
:08029000000000005509000800
:1002980010B5054C237833B9044B13B10448AFF3B8
:1002A80000800123237010BDE80300240000000033
:1002B8005859010808B5034B1BB103490348AFF36C
:1002C800008008BD00000000EC0300245859010814
:1002D80081F0004102E000BF83F0004330B54FEAEF
:1002E80041044FEA430594EA050F08BF90EA020F5C
:1002F8001FBF54EA000C55EA020C7FEA645C7FEAEF
:10030800655C00F0E2804FEA5454D4EB5555B8BF11
:100318006D420CDD2C4480EA020281EA030382EA82
:10032800000083EA010180EA020281EA0303362D14
:1003380088BF30BD11F0004F4FEA01314FF4801CE7
:100348004CEA113102D0404261EB410113F0004FF9
:100358004FEA03334CEA133302D0524263EB4303B0
:1003680094EA050F00F0A780A4F10104D5F1200E4E
:100378000DDB02FA0EFC22FA05F2801841F10001A9
:1003880003FA0EF2801843FA05F359410EE0A5F17D
:1003980020050EF1200E012A03FA0EFC28BF4CF0AE
:1003A800020C43FA05F3C01851EBE37101F0004564
:1003B80007D54FF0000EDCF1000C7EEB00006EEB71
:1003C8000101B1F5801F1BD3B1F5001F0CD34908FB
:1003D8005FEA30004FEA3C0C04F101044FEA445252
:1003E80012F5800F80F09A80BCF1004F08BF5FEAD9
:1003F800500C50F1000041EB045141EA050130BDB9
:100408005FEA4C0C404141EB0101013C28BFB1F5CA
:10041800801FE9D291F0000F04BF01460020B1FA15
:1004280081F308BF2033A3F10B03B3F120020CDAE8
:100438000C3208DD02F1140CC2F10C0201FA0CF0C6
:1004480021FA02F10CE002F11402D8BFC2F1200C2B
:1004580001FA02F120FA0CFCDCBF41EA0C019040E1
:10046800E41AA2BF01EB0451294330BD6FEA04042A
:100478001F3C1CDA0C340EDC04F11404C4F1200215
:1004880020FA04F001FA02F340EA030021FA04F327
:1004980045EA030130BDC4F10C04C4F1200220FA7E
:1004A80002F001FA04F340EA0300294630BD21FABC
:1004B80004F0294630BD94F0000F83F4801306BF82
:1004C80081F480110134013D4EE77FEA645C18BF76
:1004D8007FEA655C29D094EA050F08BF90EA020F0D
:1004E80005D054EA000C04BF1946104630BD91EA05
:1004F800030F1EBF0021002030BD5FEA545C05D108
:100508004000494128BF41F0004130BD14F5800446
:100518003CBF01F5801130BD01F0004545F0FE41BA
:1005280041F470014FF0000030BD7FEA645C1ABFEF
:10053800194610467FEA655C1CBF0B46024650EA26
:10054800013406BF52EA033591EA030F41F4002152
:1005580030BD00BF90F0000F04BF0021704730B5D8
:100568004FF4806404F132044FF000054FF00001AD
:1005780050E700BF90F0000F04BF0021704730B56E
:100588004FF4806404F1320410F0004548BF404243
:100598004FF000013EE700BF42004FEAE2014FEA98
:1005A80031014FEA02701FBF12F07F4393F07F4F73
:1005B80081F06051704732F07F4208BF704793F076
:1005C8007F4F04BF41F40021704730B54FF4607489
:1005D80001F0004521F000411CE700BF50EA01028C
:1005E80008BF704730B54FF000050AE050EA010235
:1005F80008BF704730B511F0004502D5404261EBA5
:1006080041014FF4806404F132045FEA915C3FF4E5
:10061800D8AE4FF003025FEADC0C18BF03325FEA82
:10062800DC0C18BF033202EBDC02C2F1200300FA33
:1006380003FC20FA02F001FA03FE40EA0E0021FA58
:1006480002F11444BDE600BF53B94AB9002908BFF6
:1006580000281CBF4FF0FF314FF0FF3000F074B995
:10066800ADF1080C6DE904CE00F006F8DDF804E001
:10067800DDE9022304B070472DE9F047089D0446E0
:100688008E46002B4DD18A42944669D9B2FA82F23D
:1006980052B101FA02F3C2F1200120FA01F10CFA79
:1006A80002FC41EA030E94404FEA1C48210CBEFBB1
:1006B800F8F61FFA8CF708FB16E341EA034306FB3A
:1006C80007F199420AD91CEB030306F1FF3080F0C9
:1006D8001F81994240F21C81023E63445B1AA4B216
:1006E800B3FBF8F008FB103344EA034400FB07F7B8
:1006F800A7420AD91CEB040400F1FF3380F00A81F9
:10070800A74240F207816444023840EA0640E41BED
:1007180000261DB1D4400023C5E900433146BDE899
:10072800F0878B4209D9002D00F0EF800026C5E93B
:10073800000130463146BDE8F087B3FA83F6002E53
:100748004AD18B4202D3824200F2F980841A61EBCB
:10075800030301209E46002DE0D0C5E9004EDDE7E9
:1007680002B9FFDEB2FA82F2002A40F09280A1EBD1
:100778000C014FEA1C471FFA8CFE0126200CB1FB26
:10078800F7F307FB131140EA01410EFB03F088421F
:1007980008D91CEB010103F1FF3802D2884200F2AC
:1007A800CB804346091AA4B2B1FBF7F007FB10113E
:1007B80044EA01440EFB00FEA64508D91CEB0404DC
:1007C80000F1FF3102D2A64500F2BB800846A4EB37
:1007D8000E0440EA03409CE7C6F12007B34022FA22
:1007E80007FC4CEA030C20FA07F401FA06F31C4351
:1007F800F9404FEA1C4900FA06F3B1FBF9F8200C5E
:100808001FFA8CFE09FB181140EA014108FB0EF0A3
:10081800884202FA06F20BD91CEB010108F1FF3AF3
:1008280080F08880884240F28580A8F102086144FF
:10083800091AA4B2B1FBF9F009FB101144EA01410D
:1008480000FB0EFE8E4508D91CEB010100F1FF34B8
:100858006CD28E456AD90238614440EA0840A0FB50
:100868000294A1EB0E01A142C846A64656D353D026
:100878005DB1B3EB080261EB0E0101FA07F722FA4A
:1008880006F3F1401F43C5E9007100263146BDE873
:10089800F087C2F12003D8400CFA02FC21FA03F3D6
:1008A800914001434FEA1C471FFA8CFEB3FBF7F057
:1008B80007FB10360B0C43EA064300FB0EF69E427C
:1008C80004FA02F408D91CEB030300F1FF382FD215
:1008D8009E422DD9023863449B1B89B2B3FBF7F6BD
:1008E80007FB163341EA034106FB0EF38B4208D996
:1008F8001CEB010106F1FF3816D28B4214D9023ED7
:100908006144C91A46EA004638E72E46284605E7F4
:100918000646E3E61846F8E64B45A9D2B9EB0208C5
:1009280064EB0C0E0138A3E74646EAE7204694E755
:100938004046D1E7D0467BE7023B614432E7304688
:1009480009E76444023842E7704700BFFEE700BF8A
:100958000B480C4A904203D0121A0B4913F04AFD77
:100968000A480B4A904203D0121A002113F050FD96
:1009780005F0D2FB13F00AFD00F02AFCFEE700BFE9
:1009880000000024E403002488590108E803002437
:10099800A8270724037E002B43D0C368002B30B55B
:1009A80027DD00F120049D0001EB830E224623463B
:1009B80051F804CB714543F804CBF9D10369FBB175
:1009C800012B1AD12C449FED1E0AF2EC017AA242A7
:1009D800A7EEA70AF9D1D0ED077A80ED070A30EE25
:1009E800670AB5EEC00AF1EE10FA01D59FED140AB8
:1009F80030BD0369DBB1012B16D0B7EE000A30BD5C
:100A08002C449FED0F7AF2EC017A9442A7EEA77A74
:100A1800F9D1B5EE407AF1EE10FA0BD4B1EEC70A6F
:100A280030BD9FED070A70479FED050AD3E79FED9C
:100A3800047AF3E7B0EE470ABDE8304012F0B2BDE1
:100A4800000000000000000070B5C668F7EE007AEC
:100A580007EE106A002E2DED048BF8EEC79A79EE9A
:100A6800E79A21DD00F5815500249FED159A90ED58
:100A7800008B38EE088B89EE290A0134B7EEC00ADC
:100A880020EE080B12F0DCF9A642F7EE006A9FEDA3
:100A9800085B9FED097B39EE269AA0EE457BB7EE01
:100AA800C77BA5EC017AE6D1BDEC048B70BD00BF15
:100AB800000000E0A370DD3F00000020AE47E13FEA
:100AC8000000000070B5C668F7EE007A07EE106AFD
:100AD800002E2DED048BB8EEC79A39EE679A21DD0A
:100AE80000F58155002490ED008B38EE088B07EE59
:100AF800904A0134F8EEE77A87EE890AB7EEC00A21
:100B080020EE080B12F09CF9A642B7EE007BB6EE79
:100B1800006B37EE400B20EE060BB7EEC00BA5ECD2
:100B2800010AE4D1BDEC048B70BD00BF00000000D9
:100B38004FF400739FED0C7B10B5016101218360B8
:100B48004FF48063044642610176C36080ED007B08
:100B58002AB18A4201D1FFF7B5FF204610BDFFF741
:100B680073FF204610BD00BF182D4454FB210940D7
:100B78002DE9F04300F5405641F2240500F5804385
:100B88004FF400744FF480624F4F8146054406F5D8
:100B9800896000212DED028B076083B0C6F84044C0
:100BA8000024C3F8982E03F5696203F69463116074
:100BB800464A1A60634207EE103AB8EEC77A9FEDCC
:100BC8003C0BB7EEC77A27EE477B87EE000B11F098
:100BD800BFFF07EE904A0134B8EEE76A802C9FED1C
:100BE800365BB7EEC66A86EE057B27EE007BB7EE6E
:100BF800C77BA5EC017ADDD141F2C82341F26C3103
:100C08004B4449444FF07E5243F8042B9942F9D1A2
:100C180043F24C480027C84401374546002407EEF4
:100C2800907AF8EEE78A06F58963013493ED000AB5
:100C380007EE904A30EE000AB8EEE77AB5EE400AC1
:100C4800F1EE10FA28D4B1EEC08A37EE687A9FED3B
:100C58001C0BB7EEC77A27EE477B87EE000B11F027
:100C680077FF292CF1EE047AB7EE007A28EE278A6E
:100C7800C7EE087AB7EEE77A27EE000BB7EEC00B9F
:100C8800A5EC010ACFD1292F08F1A408C4D103B0DB
:100C9800BDEC028BBDE8F0838DED017A12F082FC89
:100CA8009DED017AB0EE408ACFE700BFAFF3008038
:100CB8000000000000E4AC400000000000E49C409C
:100CC8000000000000004940DB0F49400000F042EE
:100CD80070B50446002300F58050012240F201253A
:100CE80004F11406A36011462661C4E90053C0E963
:100CF80006330362C0F81034C0F81434C0F818344E
:100D080004F5A150FFF714FF2046FFF731FF2046F6
:100D180070BD00BF44F69463034493ED000A704726
:100D28002DE9F843D1E9000300AFA3EB000E0EF163
:100D38000703BEF11C0F4FEAAE0123F00703ADEB2A
:100D4800030DEC4600F39380BEF1000F01F101069C
:100D580023DB8946E046002404F108028A42A8BF42
:100D68000A46012A02F1FF357BDD031D00EB8202F2
:100D7800DFED427AB3EC017A934277EE877AF9D1C4
:100D8800002D68DD07EE105AB8EEC77AC7EE876AFD
:100D98000134E8EC016A4C45DEDDCD1FB5426ADD61
:100DA80000F11C02AEF11C0902EB86020CEB0904EF
:100DB8000CEB8606A2F13C03DFED307AB3EC017A46
:100DC800934277EE877AF9D1F2EE0E6A043287EE13
:100DD800A67AA6EC017AA642ECD1E144A1F10E0470
:100DE80080460EEB0002012C2346B8BF012399422E
:100DF800A1EB030638DD00EB8303DFED207AB3ECCB
:100E0800017A9A4277EE877AF9D1002E26DD07EE2D
:100E1800106AB8EEC77AC7EE876A0134E9EC016A4E
:100E2800A542E0D1BEF1000F12DD0023F8EC017AF3
:100E38000133BCEC017A77EEC77AF5EEC07AF1EEB1
:100E480010FA48BFDFED0D7A994248ED017AEDDCE2
:100E5800BD46BDE8F883DFED096A99E7DFED076A6B
:100E6800DBE7DFED067A8BE7DFED047ACDE70826CE
:100E78004FF007096EE7AEF11C09AEE7000000006D
:100E880010B50C684FF4007C00F618004FEA440EC9
:100E980004F500610EF5006EAEEB01022346DFEDAE
:100EA8000C7AF3EC016AB2EC017A9942E6EE877AA1
:100EB800F7D107EE10CABCF1010CA1F10401F8EE5C
:100EC800C76A87EEA67AA0EC017AE5D110BD00BF0B
:100ED8000000000000F5805341F2280C9B6984440F
:100EE8002DE9F0436FF0030900F59157C3F10408A9
:100EF800181DA9EB0309B0EC017AACF60C04ACF6AA
:100F080008014FF0000E09EB000608EB0005CEEBD8
:100F1800CE7223465200013207EE902AF8EEE76AB5
:100F2800F3EC017A9CED006A994267EE867A87EEC7
:100F3800A66A37EE067A00ED017AF1D10EF1FF3E8E
:100F4800344429441EF1040FE1D10CF1040CBC45D2
:100F5800D1D1BDE8F08300BF70B500F580550446D7
:100F68000669D5F81014826801F5006C0068B2FBB8
:100F7800F0F300FB1323013206EB83031B6841F8EF
:100F8800043B8C45F3D141F21046204626443146B5
:100F9800FFF7C6FE31462046FFF772FF2046FFF7EF
:100FA80099FF41F2180120462144FFF7B9FE41F2AA
:100FB8006C31AE69522021449FED567ADFED567AA6
:100FC8008C4610E007EE900A0230B8EEE76A07EEAA
:100FD800905AB8EEE77AC6EE877A86EE867AF8FEF9
:100FE800677AB8FE477ABDEEC77AA228FDEEE77A9F
:100FF8004FEA4005DFED496A17EE102A17EE903ADE
:1010080006EB820206EB830352ED017A13ED017AB7
:1010180077EE877AECEC017AD4D141F2242E41F2B2
:10102800C820A6442044F44642F22822BFEE007AA3
:101038000546034662441646F3EC017AA432D6ED1F
:10104800006A67EEA67AF4EE477AF1EE10FA37FEF8
:10105800877A9942EFD1DCED527A27EE877AACECA9
:10106800017A6045E0D17346DFED2D7AB3EC017A61
:10107800984277EE877AF9D1DEED006A86EEA77A94
:10108800AEEC017A7045F7D1BFEE007A0023F0EE9E
:10109800476A55ED297AF4EEC77AF1EE10FA05DDC4
:1010A80007EE103AF8EEC76AB0EE677A0133E5EC5E
:1010B800017A292BEDD1F0EE007A9FED1A6ADFED67
:1010C8001A5A04F5405304F58044A6EEA76A03F5BE
:1010D800886393ED007A04F56963B8EEC77AC5EEC4
:1010E800867A67EE877AF5EEC07AC3ED007AF1EE7C
:1010F80010FA0DDDDFED0D5A04F694649FED0C6ACD
:10110800C7EE256A66EEA77A86EE277A84ED007A1E
:1011180070BD00BF0000824200000042C07FA145B0
:10112800000000000000A042C07F214A00442C4774
:101138000000704238B5044600F5A150FFF72AFCBC
:1011480063682269216802EB830201338B4282EDD6
:10115800000A636002D1002213466260A2689342CB
:1011680004D10133994208BF0023A36004F58045E8
:10117800D5F8983E1BB1013BC5F8983E38BD2046CE
:10118800FFF7EAFE4FF48063C5F8983E38BD00BF0C
:10119800704700BF704700BF704700BF704700BF6F
:1011A800704700BF704700BF38B500F5805504464A
:1011B800D5F8100420B1D5F81814091A11F0C5FB98
:1011C800A86918B1296A091A11F0BFFB204638BD71
:1011D8002DE9F04F00215E485E4E0124DFF8C8A1DA
:1011E800DFF8C8912DED028B89B000F0F1FC0421E5
:1011F80057486D4600F006FC554800F019FCB0EE63
:10120800408A554811F05CFA5448B0EE480A11F08B
:1012180057FAB0EE480A304611F022F80021504A39
:1012280050468B4613F0F4F84D4A484659464AE969
:1012380002B413F0EDF8B0EE480A4A4849F8044CF5
:1012480049F808BC11F06EFB9FED470A424811F0BF
:1012580023FB9FED460A404811F0BAFA444C9FED33
:10126800420A3E4811F018FB9FED400A3B4811F036
:10127800AFFAF7EE000A9FED3F0A0FCC0FC594E8CE
:101288000F0085E80F005A4669463B4802F00CF803
:10129800B7EEC87AA4F1100EEC46DFED380A9FEDE0
:1012A8002A6BBEE80F0027EE067BACE80F0094E837
:1012B8000F00B7EEC70B85E80F00022269463048D9
:1012C80001F0F2FFA4F1100EEC46DFED2E0A9FEDBF
:1012D8002E0ABEE80F00ACE80F0094E80F0085E87E
:1012E8000F0069460222294801F0DEFFF6EE087A6F
:1012F800274BA4F1740028EE278AFDEEC87A17EE72
:10130800902AB8EEE77A9A4238EE477A28BF1A460A
:10131800204B4AF8042C49F8042C1F4A33607260A9
:101328001E4B1F4A0AED037A09ED037A82ED008A03
:1013380083ED008A00F07EFB1A49A4F1740000F0E6
:101348005FFBFEE7AFF300809A9999999999A93FB5
:1013580074040024AC9600240CA2062458A2062487
:1013680000530700F0A106243333333F0000F04256
:10137800D8040024000000003C0400240060EA4770
:1013880048F1062400409C460000FA430404002467
:10139800BFD401009A99593F00A08C4680F10624D9
:1013A80088F10624E9170008185307C00C0000C08C
:1013B80038B505462F480C4601F0B8FE2E4885ED95
:1013C800000A01F0B3FE2D4B84ED000A1B68012BC7
:1013D80022D0022B08D003B138BD2968284A294BEE
:1013E800116022681A6038BD274801F08DFFDFEDD3
:1013F800277AB4EEE70AF1EE10FA17D5244A9FEDE2
:10140800257AD2ED007A244B67EE877AC3ED007A0D
:101418002268224B1A6038BD1B4801F075FF1E4A2E
:101428001E4B82ED000A22681A6038BDDFED1C7A77
:10143800B4EEE70AF1EE10FAE0D4DFED1A7AB4EE72
:10144800E70AF1EE10FA0FD4DFED177AB4EEE70AE7
:10145800F1EE10FADCD50E4A0F4BD2ED007A77EE9A
:10146800A77AC3ED007AD3E7094A0B4B12681A60D2
:10147800CEE700BFD8040024F804002494F1062421
:101488008CF10624AC96002448F10624CDCC4C3EC1
:1014980084F106240000000088F1062490F1062457
:1014A800CDCCCC3E9A99193FCDCC4C3F10B5254CAC
:1014B800F0EE407A2368022B2DED028BB0EE608AA5
:1014C80033D09FED210A012B27EE800A47FE800AC0
:1014D80033F002031D480CBF0123002301EE103A2C
:1014E800B8EEC11A21EE271A01F08CFF2368022BEF
:1014F80020D09FED150A012B28EE000A48FE000AAD
:1015080033F0020312480CBF0123002301EE103A06
:10151800B8EEC11A21EE081A01F074FF0D48BDECAF
:10152800028BBDE8104000F0A5BADFED070A60EEB7
:10153800200ACDE7DFED040AB0EE480A68EE200A7B
:10154800DEE700BF94F106240000000048050024EF
:101558009C0500247404002410B50023194C1A4873
:1015680082B01A491A4A036020460B60136000F0E3
:1015780065FA204600F06EFA01A96846FFF718FFE1
:1015880094F8403003B1236E1248134A0468134993
:101598002344DDED010A9DED000A82FB0342A2EB24
:1015A800E37202EB42029B1A0333A1FB031222F0FF
:1015B800010101EB52029B1A0360FFF777FF02B0AB
:1015C80010BD00BF740400248CF1062490F1062499
:1015D80088F1062494F1062456555555ABAAAAAAB3
:1015E800F0B51E4F05461E4E0C4638462DED028BB3
:1015F800B0EE608A85B0F0EE408A11F085F830468A
:10160800B0EE480A11F080F8796B726B2B460291A4
:1016180002A9039203AA0094124810F0E1FE124BAB
:10162800F7EE007AD5ED005A93ED006A77EEC66AB8
:1016380026EEA87AA5EE867A85ED007A93ED007AF3
:10164800D4ED006A77EEC77A67EE880AE6EE870A75
:10165800C4ED000A05B0BDEC028BF0BD0CA2062457
:1016680058A20624AC9600248CF10624534B544A05
:10167800D3ED007A92ED007ADFED526A37EE677AA1
:10168800DFF854C12DE9F04FE7EE267A4E4EDCF82C
:101698000470B7EE007A4D4CDFF840E14C4DFDEE9A
:1016A800E76AC3ED007AD5F8049016EE903AF8EEA2
:1016B800E66AB34277EEE67A28BF3346DA19AB60BA
:1016C800CCF808304B44A4FB028B02F1010AC5EDAB
:1016D800007A4FEADB3BCCED007A0EFB1B220CEBC9
:1016E8008202D2ED036AA4FB0A82D20B0EFB12AA75
:1016F800A4FB03820CEB8A0AD20B9AED036A03F16E
:10170800010A0EFB123236EE666A05EB8202E7EE3C
:10171800866AC0ED006AD2ED037AA4FB0A2395ED30
:10172800006ADB0B2B4A0EFB13AA0CEB870337442A
:101738004E4405EB8A0A05EB8909DAED036A76EE71
:10174800E76AE6EE867AB0EE406AC1ED007AD0ED3F
:10175800007AD2ED006AA7EEA66A77EE667A27EEDF
:10176800800A83ED036AB0EE606AD0ED007AA4FBCC
:101778000732A4FB0643A6EEA70AD20BDB0B0EFB2F
:101788001277144A0EFB1366CCF8047080ED000A39
:10179800D2ED006AD1ED005A77EE667A6E60A5EE5A
:1017A800A66A27EEA07A89ED036AD1ED007AA6EE43
:1017B800A77A81ED007ABDE8F08F00BF80F106249A
:1017C80088F10624F7CC9238BFD4010073B2E745FC
:1017D800000000C090F106240C5307C0C0D40100DB
:1017E8002DE9F04716462DED028B82B082B9FFF73E
:1017F800B3FE31463A48FFF79DFC3948FFF78AFAAD
:10180800384B83ED000A02B0BDEC028BBDE8F087CF
:10181800B2F1005F61D24FEA82090446013E8A466E
:101828004846314F11F093F84A4600218046760821
:1018380012F0EEFD4546FFF78FFE04F1080303EBB7
:10184800C60620E0013B012B2FD8F0EE680A01A95B
:10185800B0EE480A6846FFF709FF009A019B38EE88
:10186800288A0834F6EE000ACAF80430A6422B4645
:10187800CAF8002005F1080528EE208A0AF1080AAE
:1018880083ED008A16D03B6894ED008AD4ED018A76
:10189800002BD7D1F0EE680A01A9B0EE480A6846D5
:1018A800FFF79EFE009A019BD9E70022134601929A
:1018B8000092D4E741460A48FFF73CFC0848FFF786
:1018C80029FA084B4946404683ED000A11F03DF8D5
:1018D80002B0BDEC028BBDE8F087044811F048F86F
:1018E800A8A2062484F1062494F10624BC46010823
:1018F8002E4800222E4938B500F510430260426197
:10190800C3F82422C3F82C220262C0F87C21294A99
:101918000D88C3F830224FF60F02274CA3F8342263
:1019280007228988A3F82852244D83F836222246B4
:10193800A3F82A12224911F003F82846FFF7C8F93C
:1019480022462049284610F0FBFF22461E491F4820
:1019580010F0F6FF1E4D22461B491E4810F0F0FFFE
:1019680022461D491D4810F0EBFF224629461C4817
:1019780010F0E6FF224629461A481B4D10F0E0FFFA
:1019880022461A491A4810F0DBFF22462946194810
:1019980010F0D6FF22462946174810F0D1FF2246FC
:1019A80029461648BDE8384010F0CABF7404002420
:1019B8007846010880707FF000000024A8A2062461
:1019C800A9110008B1110008991100080CA20624F9
:1019D800AD11000858A206249D110008AC960024F9
:1019E8000C5307C0000000C0A5110008A111000891
:1019F800F0A1062448F10624040400243C04002431
:101A080000F08AB938B5044600F08EF9D4F8A4502D
:101A1800204600F0A5F9284601F0ACFBD4F8A85000
:101A2800204600F09DF92846BDE8384001F0A2BBE9
:101A380000F076B9183001F05DBF00BF10B504465C
:101A4800643001F073FB04F18400BDE8104001F03C
:101A58006DBB00BF10B504463C3001F0E7FB04F154
:101A6800AC0001F027FD04F1BC00BDE8104001F016
:101A780021BD00BF10B50446D43001F0F3FC04F5D5
:101A88009470BDE8104001F0EDBC00BFF0B504460D
:101A98008DB01420012500F029F90346132004F124
:101AA800D407ADF80C3000F021F90346122004F5F4
:101AB800947406AEADF8103000F018F90399ADF83B
:101AC800140038460095DDE9042301F073FC112069
:101AD80000F00CF903461820ADF80C3000F006F9B8
:101AE800ADF81000172000F001F9ADF81400059BBF
:101AF8002046049A0399009509AD01F05BFC304635
:101B0800072104F043FC96E8070085E8070029460A
:101B1800384601F091FC96E8070085E80700294659
:101B2800204601F089FC384601F09CFC20460DB0A7
:101B3800BDE8F04001F096BC2DE9F04104461520BF
:101B4800002504F1180704F1A4062DED028B8EB0D0
:101B58009FED1E8A00F0CAF8034605A8ADF80C30C0
:101B6800039901F0D5FC0F2000F0C0F803460DF1F1
:101B78002500ADF81030049901F0CAFC04230222B4
:101B880005A9384601F0D2FC04F1640204F184038B
:101B9800C4E929232946384656F8048B01F0C0FECB
:101BA80001462046019100F0DBF80023F0EE480AD8
:101BB800019940461A4601F087FA25B10EB0BDECEE
:101BC800028BBDE8F0810125E4E700BF6F12033BFB
:101BD80070B59FED420A8EB004468DED010A009162
:101BE80000F082F80099204600F026F91B2000F04A
:101BF8007DF8034604F1AC069DED010AADF81430FA
:101C080004F1BC05059930468DED000A01F038FC59
:101C18001C2000F06BF8ADF818009DED000A28466E
:101C2800069901F02DFC1A20C4E9336500F05EF82E
:101C3800034619200025ADF80C3000F057F803468C
:101C48000D2004F51046ADF8103000F04FF8ADF84F
:101C58001C0004F13C009DED000A049A0399079BBF
:101C680001F0B4FA2046FFF711FF2046FFF764FFA2
:101C780001231B4A49F22C20099307A90C9347F624
:101C8800122320440A950D93022308950B93154BB4
:101C9800C6E98952079303F097FE0A23C6F818523B
:101CA8003021C6F81452204684F8843184F88051D3
:101CB80000F03AF8D4F8A450204600F051F828462D
:101CC80001F058FAD4F8A850204600F049F8284600
:101CD8000EB0BDE8704001F04DBA00BF0000000032
:101CE8000107010601060107704700BF202882B0DE
:101CF80009D8084B03EB400213F81030507843EA38
:101D0800002002B0704701230C2043EA002002B0F3
:101D1800704700BFD8460108143001F0ADB900BFC4
:101D2800143001F0A5B900BF38B500F11405044618
:101D38002DED028B284601F08DF9284601F098F91F
:101D48002846B0EE408A01F081F9D0ED007AF8EE2D
:101D5800677A88EE277ABDEC028B84ED0E7A38BD5F
:101D680090ED0E0A704700BFF0B5032399B0002725
:101D78000125129306462C4B09A81595CDE90E733B
:101D880040F20453ADF84030284BCDE9135709937E
:101D980001F0C8FE09A801F0A1FF002836D1244BA4
:101DA80004AF04460090CDF842301023394604951C
:101DB8008DF820301F4BCDE91650CDE90650684606
:101DC800059302F019F90823009A01A909A8ADF8AA
:101DD80004508DF8064009940295039300F0E4F846
:101DE80000230EA938463024049302F0CDFE0322C6
:101DF8004FF07E5309A906F114000B930C93CDE91B
:101E08000942049A01F0EAF819B0F0BD40F601322F
:101E1800074B169704AFADF824200998CDF8423047
:101E2800179500F081F8DBE70402040403030001BE
:101E3800040604030704010B2DE9F04304462DEDC5
:101E4800028B83B0002948D0012140F201120023FF
:101E58000091ADF804208DF80630304A0126304B49
:101E6800271D304904F12908626040F20272A3601C
:101E780040F60663E16004F125092682A4F82520CE
:101E880084F82760A4F8293084F82B6004F0FAF865
:101E98006946054648B304F130008DF8066004F041
:101EA8004FF8072D34D104F114052046FFF75CFFE5
:101EB800284601F0DDF82846B0EE408A01F0C6F861
:101EC800D0ED007AF8EE677A88EE277A84ED0E7AFC
:101ED80003B0BDEC028BBDE8F08340F20113009122
:101EE8008DF80610ADF80430B7E704F1300004F0BF
:101EF80027F83946204602F0C7FA484601F012FE94
:101F0800404601F00FFE04F1120000F077F9CAE72D
:101F18003946204602F0B8FAC5E700BF05080509AA
:101F280005070506050A060610B584B00346012410
:101F3800ADF8040003A8ADF80C30ADF80E4001F080
:101F4800F1FD214603A801F0D7FE204603F02CFF3F
:101F5800002103A801F0D0FE204603F025FF21460A
:101F680003A801F0C9FE04B010BD00BF10B5C2F34C
:101F7800002384B00C46017C8DF80D2043EA44020E
:101F8800FA2402238DF80C2003AA009402F0CAF860
:101F980018B10124204604B010BD04460A2003F0FD
:101FA80003FF204604B010BD034670B543F8042B68
:101FB800044684B007C983E80700A37983B91A21C6
:101FC8000B461E22FA2523742046ADF80C20022366
:101FD80003AA009502F0A6F828B1012004B070BD4C
:101FE8001B210B46EDE70A2003F0DEFE4FF4B85242
:101FF80000950223ADF80C20204603AA217C02F0AC
:1020080091F80028E9D10A2003F0CEFE41F20272CD
:1020180000950223ADF80C20204603AA217C02F08B
:1020280081F80028D9D10A2003F0BEFE04220095C9
:102038000223ADF80C20204603AA217C02F072F896
:102048000028CAD10A2003F0AFFE06220095022319
:10205800ADF80C20204603AA217C02F063F8002882
:10206800BBD10A2003F0A0FE41F20822009502230A
:10207800ADF80C20204603AA217C02F053F8002872
:10208800ABD10A20064603F08FFE0095022303AA6F
:10209800217C2046ADF80C6002F044F800289CD161
:1020A800304603F081FE009522790C232046002A51
:1020B8008DF80C3003AA4FF0020314BF62214221AD
:1020C8008DF80D10217C02F02DF8002885D13046BE
:1020D80003F06AFE2279D4E902310B43DBB20AB974
:1020E80043F0400362790AB143F020030E22FA2537
:1020F8008DF80D302046009502238DF80C2003AA98
:10210800217C02F00FF800287FF467AF0A2003F063
:102118004BFE102200950223ADF80C20204603AA9E
:10212800217C01F0FFFF00287FF457AF0A2003F05D
:102138003BFE122100950223ADF80C1003AA217C66
:10214800204601F0EFFF00287FF447AF0A2003F094
:102158002BFE012209212046FFF708FF003818BF8F
:1021680001203BE7F0B5102387B0234C012200255E
:102178000126002702A920460195CDE902234FF444
:102188008052CDE904670AF045FD642004F030FA76
:1021980002A94FF480522046CDE904670226102791
:1021A800CDE902670AF036FD0322102302A9204672
:1021B800CDE9022300230422CDE904234FF4805201
:1021C8000AF028FD40F23223042202A901931023C9
:1021D8002046CDE90223019A012305924FF480524B
:1021E80004930AF017FD40F6060120460AF032FD76
:1021F800284607B0F0BD00BFA0F106241C4B002202
:102208001C494FF0400C30B5054689B00220596092
:1022180007219A601A620124DA620A224FF4006EDA
:10222800DC6006922022CDE9000104200821CDE9D6
:10223800020103201021CDE9040108206946C3E901
:1022480004024FF4C072181DC3E906C24FF480524D
:10225800C3E909E20AF0B4FC38B92846FFF782FF5F
:10226800003818BF012009B030BD204609B030BD84
:102278009CF1062440410052614A0021D0B5136800
:102288008EB00A91002B40F0B9805E4B01214FF6C9
:1022980083700C2411600221D3F8D4200026032770
:1022A80042F48052C3F8D420D3F8D42002F48052E8
:1022B8000092009AD3F8E02042F01002C3F8E02020
:1022C800D3F8E02002F010020192019AD3F8E0203E
:1022D80042F04002C3F8E020D3F8E02002F04002C8
:1022E8000292029AD3F8E02042F00802C3F8E020F4
:1022F800D3F8E02002F008020392039AD3F8E02012
:1023080042F48072C3F8E020D3F8E02002F480722F
:102318000492049AD3F8E02042F08002C3F8E02047
:10232800D3F8E02002F080020592059AD3F8E02065
:1023380042F02002C3F8E020D3F8E02002F02002A7
:102348000692069AD3F8E02042F00402C3F8E0208F
:10235800D3F8E0300C9403F0040307930323079A9F
:102368000B93CDE9080108A9274805F0C7FF48F2F3
:102378003712022308A925480C94CDE90823CDE992
:102388000A6705F0BBFF4CF20372022308A9204834
:102398000C94CDE90823CDE90A6705F0AFFF40F2B8
:1023A800FF62022308A91B480C94CDE90823CDE954
:1023B8000A6705F0A3FF4FF60C72022308A9164816
:1023C8000C94CDE90823CDE90A6705F097FF4FF68D
:1023D8003F02022308A911480C94CDE90823CDE94E
:1023E8000A6705F08BFF2022022308A90A480C94EB
:1023F800CDE90A67CDE9082305F080FF0EB0D0BD0E
:1024080098F1062400440258001002580018025897
:10241800000C025800200258001C025800140258F0
:102428002DE9F04FDFF8108406460D46144608F1F2
:1024380018002DED028B89B000AF02F09DFCD8F892
:10244800183073B3D8F81C30D8F80490002B4369BF
:102458000BBF4FF0080A4FF0100A4FF0020B4FF075
:10246800040BB9F1000F2AD0A200EA46012B02F1B1
:10247800070222F00702ADEB020D6846ADEB020D34
:10248800694600F03F81022B00F0D680002B6FD008
:102498002246C847D5462437BD46BDEC028BBDE869
:1024A800F08FD8F81C30002BF5D0D8F804904FF0F6
:1024B800080A4FF0020B4369B9F1000FD4D1FB6150
:1024C800D8F80030BB61002BE5D0D54802F0C6FC37
:1024D8006B46BBF1020F786108EE103AFB6900F019
:1024E80083816A465146A2EBC40295466200EA46D9
:1024F800B2FBFBF2AAEBC40085460AEB8200EE466B
:10250800F861ADEB010DF8690EEB820CC7F810C04D
:10251800EC46ADEB010D00EB8201CCF80400CCF8E1
:10252800081001EB82013869E946CCF80C1000EB81
:102538008201CCF800A001EB8202C9E900E0C9E9F8
:102548000212012B00F06483022B00F06C82002B36
:1025580000F08081620849466046BB69984718EEDA
:10256800103A24379D46BD46BDEC028BBDE8F08F7E
:10257800002C8DD01A46D8ED0C6A9FEDB27A8446AD
:10258800331D36F922E00CF1080C07EE90EA33F916
:1025980022E00232F8EEE77A944267EE877A67EE35
:1025A800A67A4CED027A07EE90EAF8EEE77A67EE43
:1025B800877A67EEA67A4CED017AE2D8F96122466D
:1025C800C847984ED8ED0D6A0020F9692B1D9FED7C
:1025D8009E7A9FED9E6ADFED9E5A22E0F4EEC67A5F
:1025E800F1EE10FAC0F2C88447F6FE72D1ED017A16
:1025F80045F8202066EEA77AF4EEC77AF1EE10FAD5
:1026080040F2F080F4EEC67AF1EE10FAC0F2D5840A
:1026180047F6FE7243F820200230083184427FF6E4
:1026280039AFD1ED007A66EEA77AF4EEC77AF1EE0B
:1026380010FAD3D83246D9E7002C3FF429AFD8EDA9
:102648000C6A84469FED787A0022331D8E4656F830
:1026580022100CF1080C07EE901A53F822100232DF
:10266800F8EEE77A944267EE877A67EEA67A4CED41
:10267800027A07EE901AF8EEE77A67EE877A67EE45
:10268800A67A4CED017AE2D871462246C7F81CE0DA
:10269800C847664ED8ED0D6A0020F9692B1D9FEDDD
:1026A8006A7A9FED6A6ADFF894C120E0F4EEC67A90
:1026B800F1EE10FAC0F279843246D1ED017A45F88C
:1026C800202066EEA77AF4EEC77AF1EE10FA40F20F
:1026D8008780F4EEC67AF1EE10FAC0F25E843246D4
:1026E80043F820200230083184427FF6D3AED1ED82
:1026F800007A66EEA77AF4EEC77AF1EE10FAD5D82A
:102708006246DAE7002C3FF4C3AED8ED0C6A864681
:102718009FED477A4FF0000C331D56F82C200EF130
:10272800080E82F40002A2F5000207EE902A53F880
:102738002C200CF1020CF8EEE77A82F400026445D2
:10274800A2F5000267EE877A67EEA67A4EED027A66
:1027580007EE902AF8EEE77A67EE877A67EEA67AB0
:102768004EED017AD9D8F9612246C847314ED8EDE5
:102778000D6A0020F9692B1D9FED337A9FED336AAE
:10278800DFF8BCC01FE0F4EEC67AF1EE10FAC0F232
:10279800FC833246D1ED017A45F8202066EEA77A0F
:1027A800F4EEC77AF1EE10FA18D9F4EEC67AF1EE23
:1027B80010FAC0F2DA83324643F82020023008319A
:1027C80084427FF667AED1ED007A66EEA77AF4EE22
:1027D800C77AF1EE10FAD6D86246DBE76246EBE735
:1027E80062467DE7324615E7A100D6466208073102
:1027F80021F00701ADEB010DEA46ADEB010D69468D
:10280800ADEB0E0D0AEB8200EC46ADEB0E0D01EBC5
:102818008202F861E946CCE900A0C9E9001290E615
:10282800F0F106240280FFFF000000300082FF7FE5
:102838000000003482FF7F00D4F10624007E00806F
:102848007E0080FF0000003804FF7FBF04FF7F3F49
:1028580000FEFF46002C00F0C982BBF1020FD8F839
:10286800242000F0FA827969C7F8049002EB810EFF
:102878005FED0C5A8A00DCF808100EF104007A614A
:102888001A46DCF80C303B61331DD7F810903D61D7
:10289800FD69C7E902CB8C46834636F92210D8ED8C
:1028A8000C7A06EE101A33F9221006EE901A3EF949
:1028B8002210B8EEC66A07EE101AF8EEE66A3BF97F
:1028C8002210B8EEC77A26EE256A66EEA56A27EECC
:1028D800257A26EE276A66EEA76A27EE277A07EE9C
:1028E800901A51080232F8EEE77A0AEB8100944216
:1028F80080ED006A05EB810067EEA57AC0ED006AFD
:102908000CEB810009EB810180ED007A98ED0C7ADF
:1029180067EE877AC1ED007ABFD8D7F804903D6991
:10292800D7E902CB60466208BB6949469847D8F8A0
:102938002C307A69D8ED0D6A1A441FED3D7A1FEDE7
:102948003D6A2B1D904602F1040A5FED3F5A0022B2
:10295800A84ED9E900EC51E0F4EEC67AF1EE10FA8F
:10296800C0F2C78247F6FE7045F822000CEB010062
:10297800D0ED007A66EEA77AF4EEC77AF1EE10FA97
:102988004BD9F4EEC67AF1EE10FAC0F2BA8247F6E5
:10299800FE70BBF1020F43F822002BD0D9F80800D3
:1029A8000844D0ED007A66EEA77AF4EEC77AF1EE25
:1029B80010FA36D9F4EEC67AF1EE10FAC0F2CD82EA
:1029C80047F6FE7048F82200D9F80C000144D1ED12
:1029D800007A66EEA77AF4EEC77AF1EE10FA1ED9FD
:1029E800F4EEC67AF1EE10FAC0F2AF8247F6FE7145
:1029F8004AF82210023294427FF6B1AD51080EEB2C
:102A080081008900D0ED007A66EEA77AF4EEC77AE5
:102A1800F1EE10FAA0D83046A6E73046B9E73146BD
:102A2800E6E73046CEE7002C00F0E081BBF1020F6C
:102A3800D8F8243000F0E1817A69DCF8081003EB5B
:102A4800820EC7F804909300DFED6B5A0EF1040074
:102A580000227B61DCF80C303B61331DD7F8109005
:102A68003D61FD69C7E902CB8C46834656F82210C2
:102A7800D8ED0C7A07EE101A53F82210B8EEC76A90
:102A880007EE101A5EF82210F8EEC76A07EE101A61
:102A980026EE256A5BF82210B8EEC77A66EEA56ABC
:102AA80026EE276A27EE257A66EEA76A27EE277AAA
:102AB80007EE901A51080232F8EEE77A0AEB810025
:102AC800944280ED006A05EB810067EEA57AC0EDBF
:102AD800006A0CEB810009EB810180ED007A98ED2A
:102AE8000C7A67EE877AC1ED007ABFD8D7F80490E0
:102AF8003D69D7E902CB60466208BB6949469847F9
:102B0800D8F82C307A69D8ED0D6A1A449FED3E7AD0
:102B18009FED3E6A131D9246DFF8E4C00022FB6178
:102B28002B1D364ED9E9008E4EE0F4EEC67AF1EE52
:102B380010FAC0F2FC81304645F822000EEB010085
:102B4800D0ED007A66EEA77AF4EEC77AF1EE10FAC5
:102B580049D9F4EEC67AF1EE10FAC0F2EF813046A8
:102B6800BBF1020F43F822002AD0D9F80800084424
:102B7800D0ED007A66EEA77AF4EEC77AF1EE10FA95
:102B880035D9F4EEC67AF1EE10FAC0F2C9813046B2
:102B98004AF82200D9F80C000144D1ED007A66EE1B
:102BA800A77AF4EEC77AF1EE10FA1ED9F4EEC67AD7
:102BB800F1EE10FAC0F2AD813146F86940F8221002
:102BC800023294427FF6CBAC510808EB81008900B1
:102BD800D0ED007A66EEA77AF4EEC77AF1EE10FA35
:102BE800A3D86046A8E76046BAE76146E5E76046CD
:102BF800CEE700BF0280FFFF000000300082FF7FA9
:102C0800007E00800000003404FF7FBF04FF7F3F88
:102C1800002C00F0EB807A690021D8F82430C7F83E
:102C2800109003EB820ED7F81C909300FD610EF113
:102C380004021FED0C6A7B61331D154656F82120EE
:102C48004808D8ED0C6ABBF1020F82F40002A2F525
:102C5800000207EE902A53F8212082F40002B8EE11
:102C6800E77AA2F5000227EE067A07EE902A0AEB29
:102C78008002F8EEE77A27EE267A67EE867A82ED0A
:102C8800007A09EB80024FEA800067EEA67AC2ED6F
:102C9800007A27D05EF8212082F40002A2F5000213
:102CA80007EE902A55F8212082F40002B8EEE77A60
:102CB800A2F5000227EE067A07EE902ADCF8082033
:102CC800F8EEE77A024427EE267A67EE867A82EDF6
:102CD800007A98ED0C7ADCF80C2067EE877A0244CB
:102CE800C2ED007A02318C42A8D8D7F8109060461D
:102CF8006208BB694946FD699847D8F82C307A695B
:102D0800D8ED0D6A1A441FED407A1FED406A131D75
:102D18009246DFF8C4C20022FB612B1DAB4ED9E9F5
:102D2800008E4EE0F4EEC67AF1EE10FAC0F2C580DD
:102D3800304645F822000EEB0100D0ED007A66EE31
:102D4800A77AF4EEC77AF1EE10FA49D9F4EEC67A0A
:102D5800F1EE10FAC0F2BF803046BBF1020F43F823
:102D680022002AD0D9F808000844D0ED007A66EE8F
:102D7800A77AF4EEC77AF1EE10FA35D9F4EEC67AEE
:102D8800F1EE10FAC0F2AE8030464AF82200D9F8C7
:102D98000C000144D1ED007A66EEA77AF4EEC77A0A
:102DA800F1EE10FA1ED9F4EEC67AF1EE10FAC0F27E
:102DB8008B803146F86940F82210023294427FF63F
:102DC800CEAB510808EB81008900D0ED007A66EEA1
:102DD800A77AF4EEC77AF1EE10FAA3D86046A8E70E
:102DE8006046BAE76146E5E76046CEE722464946CF
:102DF8006046BB699847FFF7B2BBC7F810B000221E
:102E080098ED0C6A331DDFED726AD7F81CB078694B
:102E180056F8221007EE901A53F82210B8EEE77A07
:102E280007EE901A51080232F8EEE77A27EE267A72
:102E38000AEB810E94420BEB810167EEA67A27EE2E
:102E4800067A67EE867A8EED007AC1ED007ADFD8D1
:102E58008300D7F810B07B614DE61A46C7F810B06A
:102E680098ED0C6A331DDFED5B6AD7F81CB0786902
:102E780036F9221007EE101A33F9221007EE901ACD
:102E8800B8EEC77A51080232F8EEE77A27EE267ACA
:102E98000AEB810E94420BEB810167EEA67A27EECE
:102EA800067A67EE867A8EED007AC1ED007ADFD871
:102EB8008300D7F810B07B6134E5F0EE675AFEEE78
:102EC800E45A15EE900A34E7F0EE675AFEEEE45A3B
:102ED80015EE901A6EE7F0EE675AFEEEE45A15EE1C
:102EE800900A3AE7F0EE675AFEEEE45A15EE900AB9
:102EF8004BE767EEA57AFDEEE77A17EE900A00B287
:102F080032E567EEA57AFDEEE77A17EE900A00B291
:102F18003FE5F0EE675AFEEEE05A15EE901A4CE6E1
:102F2800F0EE675AFEEEE05A15EE900A30E6F0EE43
:102F3800675AFEEEE05A15EE900AFDE5F0EE675A84
:102F4800FEEEE05A15EE900A0AE667EEA57AFDEE67
:102F5800E77A17EE901A09B24AE567EEA57AFDEE10
:102F6800E77A17EE900A00B22CE5F0EE675AFEEE0B
:102F7800E45A15EE902A1FE467EEA57AFDEEE77A8B
:102F880017EE902A12B2FFF731BBF0EE675AFEEE49
:102F9800E45A15EE902AFFF7FDBBF0EE675AFEEEF5
:102FA800E05A15EE902AFFF79BBBF0EE675AFEEE4B
:102FB800E05A15EE902AFFF780BB67EEA57AFDEE82
:102FC800E77A17EE902A12B2FFF724BB82FF7F0040
:102FD80000000030000000387E0080FF30B5184C3B
:102FE800154685B0046004F1080EEC460FC98EE85A
:102FF8000F00D4ED047AF5EEC07A8CE80F00F1EEFC
:1030080010FA1ADDB7EE006A94ED057A27EE277AF2
:10301800C6EE276A84ED0D7AC4ED0C6A6DB12046C0
:1030280040F8185F01F0A8FE064903690020064A27
:103038002162A262E36005B030BD012005B030BD59
:10304800D4F1062400200030000000300068083069
:10305800704700BFB1F5807F03680A4628BF4FF468
:103068008072B1F5807F9A6094BF0020012070477C
:103078000068183001F0E0BE30B5046883B0084835
:103088000D46A368A26A216A9B00009004F118000B
:1030980001F074FE0020C4E9000503B030BD00BF94
:1030A8002924000810B4074B4FF07E513024002229
:1030B800032019619C60D8605DF8044B5961C3E92D
:1030C80006227047D4F10624F6EE007A9FED166AC0
:1030D80020EE207A0160F7EE006A80ED036A80ED49
:1030E800020A27EE277AC6EE877AF4EEE67AF1EE40
:1030F80010FA11DDF0EE667A4FF07E514FF0000CB9
:1031080002760022C0ED017AC0F814C0016143764E
:103118008276C0ED070A7047F4EEC67AF1EE10FA2F
:10312800EAD5F0EE467AE7E7000000000268037E81
:10313800128807EE902AFBEEC87A1BB1B7EE007A28
:1031480077EE677AD0ED056A90ED047A77EEE67A45
:10315800437E67EE877A0BB1F1EE677A90ED030A4A
:1031680090ED017A77EEC07AA7EE270A80ED030A80
:10317800704700BF837E80ED020AABB9D0ED077AB5
:1031880027EE800AF6EE007AB7EE007A20EE270ADC
:10319800C7EE007AF4EEC77AF1EE10FA07DDF0EE2A
:1031A800477AC0ED017A7047DFED067AE8E7F5EE79
:1031B800C07AF1EE10FAF4D5DFED037AC0ED017AAA
:1031C800704700BF6F12033B0000000030B585B0A8
:1031D80004460025ADF80C10ADF80820ADF8043011
:1031E80002F0E0FDBDF80C204FF48073206004F17C
:1031F80018002283BDF808206383E383A283257126
:1032080000F090FC04F11C0000F08CFC9FED060A15
:10321800019904F1080000F033F94FF6FF73656275
:10322800238405B030BD00BF00000000F8B5044697
:1032380002F0B8FD002623682671834205D104F107
:103248000800BDE8F84000F035B9012794F820508F
:10325800206004F11800BD40277100F03FFD6DB2F9
:10326800284394F82150BD4084F8200004F11C0044
:1032780000F034FD94F820306DB2666203F0030369
:103288002843022BC0B284F8210009D000F00300C3
:103298000228D4D1002BD2D14FF0FF336362CEE79E
:1032A8008307CCD16762CAE7DFED167A8C46B4EEA5
:1032B800670A10B504468646F1EE10FA2DED028B2A
:1032C80080ED080A48BFB0EE670AC0ED090AB0EE03
:1032D800608A80F83420BCE80F00AEE80F009CE854
:1032E8000F008EE80F000FF05DFEF0EE407AB0EEB2
:1032F800480AC4ED0A7A0FF055FE84ED0B0ABDECBE
:10330800028B10BD95BFD63390F8343010B5044603
:10331800032B4BD8DFE803F03B2A1502FFF706FF23
:1033280060EE006AD4ED087A94ED097A26EE800AF8
:1033380037EE677AE0EE077AC4ED0C7AB0EE670AEA
:1033480010BDFFF7F3FE94ED0A7AD4ED0B7A77EE11
:10335800C77AA0EE277AB0EE470A0FF0B1FDF0EE7B
:10336800407A84ED0C0AB0EE670A10BDFFF7DEFE66
:10337800D4ED087A94ED097A20EE000A37EE677AE0
:10338800E0EE077AB0EE670AC4ED0C7A10BDFFF7DD
:10339800CDFED4ED087A94ED097A37EE677AE0EE3F
:1033A800077AB0EE670AC4ED0C7A10BDD0ED0C7A3E
:1033B800C4E700BF30B585B004469FED110A9DF8FB
:1033C8002050ADF80C100399ADF808202A46ADF846
:1033D80004308DED000A0CF02BFD9DED000A2A4605
:1033E800029904F11C000CF023FD9DED000A2A4609
:1033F800019904F1380005B0BDE830400CF018BD63
:1034080000007A4410B52DED028BF0EE608A044678
:10341800B0EE418A0CF030FD04F11C00B0EE680AF1
:103428000CF02AFDB0EE480A04F13800BDEC028B1E
:10343800BDE810400CF020BD38B50C46054691EDAE
:10344800000A0CF019FD94ED010A05F11C000CF0BE
:1034580013FD94ED020A05F13800BDE838400CF080
:103468000BBD00BF10B504460CF018FD04F11C009C
:103478000CF014FD04F13800BDE810400CF00EBD4E
:1034880070B5044682B0C1F30726CDB2ADF804107A
:1034980002F088FC4FF480724FF001232060A01DD9
:1034A800A571A280E671A36002B0BDE8704000F08B
:1034B80039BB00BF38B5044602F074FC002223680B
:1034C8002271834210D00122A57AE37A95402060C8
:1034D8002271A01D6DB243B900F000FC40B2284330
:1034E800C0B27F28A0720AD038BD00F0F7FBB0FA4E
:1034F80080F040092843C0B27F28A072F4D102F0BE
:1035080051FC07EE900AF8EE677AC4ED037A38BDED
:1035180082B04FF0000C0323ADF80410BDF804206E
:1035280080F810C00280438002B070472DE9F04F48
:10353800BE4E00258FB0BE4C037006F140034260BA
:10354800074601928846202229463046C4F8583159
:10355800C4F85461CDE90355CDE90555CDE90755C2
:10356800CDE90955CDE90B5510F052FF2022294627
:1035780004F59970C4F82151C4F82551C4F82951AB
:10358800C4F82D5110F044FF019B84F8385284F898
:1035980020317A68002A5FD02B464146B64604F5AA
:1035A800907599464FF0010A03EB0310D1F800B06B
:1035B800D1F804800133D1F808C02218CE6844F845
:1035C80000B0C2F80480C2F808C0D660087C2EF8A3
:1035D800029B10740A7C05F8012F002A69D07A68CA
:1035E800113184F838A29A42DED84FF480229148EB
:1035F8009DF8043008214FF000084FF00009C4F886
:1036080074310023C4E957020122C4F8643184F8F4
:103618007031C4E95A2194F83812C4E9608981B339
:10362800C4F88821002284F8713184F878313B7815
:10363800C4E96322A3B3012200200121013B84F8DD
:103648009421C4E96801082B2CD8DFE803F0ABB05B
:10365800B5BABFC4C9CFD6009DF804300121C4F85B
:103668006421C4F874314FF4802384F87021714ABE
:10367800C4E9572308230022C4E95A130023C4E9E4
:1036880060230123002284F87131002384F8783103
:103698000323C4F888313B78C4E96322002BCAD1DC
:1036A80084F89431644803F0DBFB034638B1FFBE6D
:1036B800FEE77A6811319A423FF676AF95E703A99B
:1036C8005D48039303F02AFD0546002868D10222CD
:1036D80040F2FF73CDE9082300230422CDE90A2331
:1036E80094F82031002B00F0D5804FF0060921E036
:1036F800022B00F08980012B40F0C4809AF8013039
:10370800012B00F0C180002B4C4B18BF002306A9E9
:103718004948CDE9063902F0CFFF002840F0BF80C4
:10372800013594F82031EDB2AB4240F2B380444BFE
:1037380053F825902FB207EB071704EB070A5046FA
:1037480000F0F0F905EB051323441B7C042B7DDC0A
:10375800022B00F3918000F08D806319002283F81A
:103768001021E35D002BC3D19AF80130062B00F03D
:103778008580072B00F08A80022B00F09680032BAF
:1037880000F09580002B00F09680012B00F09180CE
:10379800042B00F09280052B2A4B18BF0023B6E7B4
:1037A800FFBEFEE703224023C4E966237AE7072227
:1037B8006023C4E9662375E70F228023C4E96623E2
:1037C80070E71F22A023C4E966236BE73F22C023CA
:1037D800C4E9662366E77F22E023C4E9662361E73C
:1037E800FF224FF48073C4E966235BE740F2FF12BF
:1037F8004FF49073C4E9662354E740F2FF324FF464
:10380800A073C4E966234DE79AF80130042B37D03A
:10381800052B3DD0002B40D0012B42D0022B42D0AB
:10382800032B094B18BF002371E700BF004000308D
:1038380010F20624002002406CF306240002B02592
:103848001C4701080000B84F0020903603233E1D96
:1038580004EB05084FF0000B264488F81031304679
:103868000BF1010B00F05EF998F8103104365B4556
:10387800F5DC76E70123EAE70223E8E7104B46E7A1
:10388800104B44E7002342E70F4B40E70F4B3EE75E
:103898000F4B3CE70FB0BDE8F08F0E4B37E7FFBE8C
:1038A800FEE70D4B33E70D4B31E70D4B2FE70D4B83
:1038B8002DE70D4B2BE70D4B29E70D4B27E700BFF5
:1038C8000800900C1000C0102000F0148000501D5B
:1038D800000180210004002A0008302E0010603208
:1038E8000040C03A0080F03E0000524700002143EB
:1038F8000000844B38B5094C40F2FF724FF00111BB
:1039080004F5AE75284603F0B7FB94F82021D4F8E7
:1039180054112846BDE8384003F022B910F20624B5
:10392800034B0F29D3F8540198BF00EB41007047AF
:1039380010F20624214B02689A4200D07047204AB0
:1039480000232048D2F8D81030B51F4C41F0200190
:1039580083B0C4F8C001092004F5E075C4E9710317
:103968004FF48060C2F8D810D2F8D8204FF4006124
:10397800C4E9733094F8380202F02002C4F8D41174
:103988004FF40051984201922846C4F8D811C4E96E
:103998007833019B14BF00234FF48073C4F8DC31E3
:1039A80003F0E2FD08B1FFBEFEE704F5AE73C4F80C
:1039B800A851C4F8F83103B030BD00BF0020024060
:1039C800004402584000024010F20624014804F066
:1039D80043B900BFD0F3062402682DE9F84F4B4BDA
:1039E8009A4201D0BDE8F88F494D95F83832002B3E
:1039F800F8D095F82031002B77D0002405F10C0978
:103A080005F5997605F59077A04613E003F00101D6
:103A180017F811BCA9F1080000F06EF9BBF1010F0D
:103A280025D895F82031013409F111090236A2B2DE
:103A380093422BD917F8012F002AF4D0D5F8543126
:103A48000021327833F81400D5F8583103EB041309
:103A580023F81200338801339BB233805FFA83FA6C
:103A68003A789A42D2D88A46A6F80080D0E7CAF3B4
:103A78004001A9F1040000F03FF9BBF1020FCAF3BD
:103A88008001CED0484600F037F9CAE7002395F800
:103A98003802204909229842C5F8C8314FF480609D
:103AA800C5F8C011C5F8C4214FF400614FF40052A5
:103AB800C5F8CC3108BF4FF48073C5F8D821C5E9E3
:103AC800740100221448C5E97732C5F8E42103F0EF
:103AD8004BFD08B1FFBEFEE795F82021D5F854113B
:103AE8000E48BDE8F84F03F03BB80A4909224FF4E5
:103AF8008060C5F8C831C5E970124FF400614FF411
:103B08000052C5E97330C5E97512DAE700200240B2
:103B180010F2062440000240D0F306246CF3062479
:103B2800704700BF8378022B30B504468FB037D07A
:103B3800032B33D0012B31D000230A93E378012BD8
:103B48002AD0022B28D000230B93002320460C9365
:103B580002F02CFC0546204602F030FC2378099040
:103B6800082B13D8DFE803F01F3245586B7E91A469
:103B78000500594BD3F8E02042F48072C3F8E020E6
:103B8800D3F8E03003F480730893089B09A928460A
:103B980004F0B4FB0FB030BD0B93D6E70A93CDE722
:103BA80011230A93CAE74C4B09A92846D3F8E02009
:103BB80042F00102C3F8E020D3F8E03003F001033B
:103BC8000093009B04F09AFB0FB030BD424B09A94B
:103BD8002846D3F8E02042F00202C3F8E020D3F8E8
:103BE800E03003F002030193019B04F087FB0FB060
:103BF80030BD394B09A92846D3F8E02042F0040229
:103C0800C3F8E020D3F8E03003F004030293029BEA
:103C180004F074FB0FB030BD2F4B09A92846D3F828
:103C2800E02042F00802C3F8E020D3F8E03003F0C7
:103C380008030393039B04F061FB0FB030BD264BD0
:103C480009A92846D3F8E02042F01002C3F8E02082
:103C5800D3F8E03003F010030493049B04F04EFB08
:103C68000FB030BD1C4B09A92846D3F8E02042F01C
:103C78002002C3F8E020D3F8E03003F020030593D6
:103C8800059B04F03BFB0FB030BD134B09A9284638
:103C9800D3F8E02042F04002C3F8E020D3F8E03047
:103CA80003F040030693069B04F028FB0FB030BDD9
:103CB800094B09A92846D3F8E02042F08002C3F84E
:103CC800E020D3F8E03003F080030793079B04F06B
:103CD80015FB0FB030BD00BF0044025838B505468B
:103CE80002F064FB0446284602F068FB01462046C1
:103CF800BDE8384004F00ABD70B506460D4602F02E
:103D080055FB0446304602F059FB2A1E0146204660
:103D180018BF0122BDE8704004F0FEBC0023122247
:103D280070B586B0CDE9022304930368032B01D84C
:103D380004230593061D841D304602F037FB054613
:103D4800304602F03BFB034601A92846019304F0E4
:103D5800D5FA204602F02AFB034620461C4602F00C
:103D68002DFB01A903462046019304F0C7FA06B0CB
:103D780070BD00BF634A0368934210B58CB028D069
:103D8800614A934258D0614A934200F09480604A55
:103D9800934201D00CB010BD5E4C5F48D4F8E030BF
:103DA80043F00203C4F8E030D4F8E03003F0020333
:103DB8000A930A9BFFF7B2FFD4F8F43043F080036C
:103DC800C4F8F430D4F8F43003F080030B930B9B61
:103DD800E0E7504C5148D4F8E03043F00203C4F80F
:103DE800E030D4F8E03003F002030193019BFFF7C1
:103DF80095FFD4F8E83000221F2043F40013114641
:103E0800C4F8E830D4F8E83003F400130293029BB6
:103E1800D4F8D83043F00103C4F8D830D4F8D830F7
:103E280003F001030393039B03F0ECF91F200CB08C
:103E3800BDE8104003F024BA364C3948D4F8E030D5
:103E480043F08003C4F8E030D4F8E03003F0800396
:103E58000493049BD4F8E03043F00203C4F8E03044
:103E6800D4F8E03003F002030593059BFFF756FFF3
:103E7800D4F8E8300022212043F480031146C4F826
:103E8800E830D4F8E83003F480030693069BD4F8AE
:103E9800D83043F00103C4F8D830D4F8D83003F050
:103EA80001030793079B03F0ADF921200CB0BDE88F
:103EB800104003F0E5B91B48FFF730FF154B00220F
:103EC8004820D3F8E840114644F40004C3F8E84019
:103ED800D3F8E84004F400040894089CD3F8D840C8
:103EE80044F00104C3F8D840D3F8D83003F00103F4
:103EF8000993099B03F086F948200CB0BDE81040EF
:103F080003F0BEB90054004000580040005C004077
:103F1800001C005800440258D8F6062450F4062421
:103F280028F5062400F606242DE9F0431A4B87B03D
:103F380000254FF010099E46EC46184BFF22E0463C
:103F480067461A700EF118060EF13004CDE90055D7
:103F5800CDE90255ADF80090BCE80F00CDE9045555
:103F6800AEE80F009CE803000095ADF800908EE8DD
:103F78000300B8E80F000FC69CE803000095ADF8F1
:103F8800009086E803000FCF0FC49CE8030084E884
:103F9800030007B0BDE8F083040000244CF40624B5
:103FA80010B5EFF3108472B6084B1A78120602D5D2
:103FB80004B962B610BD1B78D82205485BB202FB73
:103FC8000300143003F048FEF2E700BF4CF4062467
:103FD80050F40624014805F037BA00BFDCF4062483
:103FE800014805F031BA00BFB4F50624014805F0D0
:103FF8002BBA00BF8CF606242DE9F0430F68D824AD
:104008003F4D85B007FB04F4032F05EB0403036061
:1040180040DCCB680E46012B3CD84DD04FF0D80879
:10402800B646DFF8FC9008FB0758BEE80F00C44608
:10403800ACE80F00DEF800300DF1100ECCF80030BF
:10404800D8F808C099E80F000EE90F000EEB8703B7
:10405800BCF1010F53F8103CC8F88C3031D0BCF1DA
:10406800020F42D0BCF1000F35D0317C8C34D823FC
:10407800002201202C4403FB07534900C3E9260210
:10408800C3F894102046C3E92822C3E92A2204F081
:10409800CDFF18B1012005B0BDE8F08301462046E8
:1040A80005F0DEF90028F5D10146204605F002FAB0
:1040B800003818BF0120EEE70B7C103B672BADD909
:1040C800E8E701F0DDFF0F4B98420CBF0E4B0F4B9A
:1040D800C8F89030C9E701F0D3FF0A4B98420CBFEB
:1040E8000B4B0C4BC8F89030BFE701F0C9FF054BEC
:1040F80098420CBF084B094BC8F89030B5E700BF91
:1041080050F40624000E27072D0FB0303211D020AE
:104118005F4390608A62E030200BA0101A0980107B
:10412800804601082DE9F041D0F8008082B00D46A4
:1041380017461E4608F18C04204605F08DF9202804
:10414800FAD1D8F80C3073B96D002046089C334674
:104158003A46A9B2009404F0BFFF003818BF012006
:1041680002B0BDE8F081089B32463946204605F08A
:1041780087F8F2E7044B10221A7483F8E82083F8D2
:10418800C02183F89822704750F4062430B50023E4
:1041980095B04FF48071062204460B930692139350
:1041A800CDE90C13CDE90E33CDE9113301F06AFFE7
:1041B80007282BD004F1100541F2883206A92846B9
:1041C80005F08AFF28B10123184684F85C3015B041
:1041D80030BD0222022306A92846CDE90023102279
:1041E8000123CDE9022300224FF48003CDE9042303
:1041F80005224FF0807306926A460F9341F2883386
:1042080006F0D6F80028DED115B030BD0323012012
:1042180084F85C3015B030BD70B50023A4B04FF001
:1042280080724FF480750446ADF806300D93CDE9E1
:1042380010320122CDE90E53CDE91223CDE9143312
:10424800002943D0F02300F1100508AEADF8063080
:10425800C02341F2883231462846089305F03CFFD6
:1042680028B10123184684F85C3024B070BD41F2AF
:1042780088320DF10601284605F098FF034600280C
:10428800EFD105224FF480711E93284616924FF005
:1042980080721B9321931F9202AA9FED1F7BCDE989
:1042A8001C13CDE922338DED027B9FED1D7B41F27E
:1042B800883316A98DED047B9FED1B7B8DED067B66
:1042C80006F076F80028CCD124B070BD00F11005B6
:1042D80008AE612341F2883231462846089305F03A
:1042E800FBFE0028BDD141F288320DF106012846B7
:1042F80005F0DAFF0028B4D1BDF80630204623F0D7
:10430800780343F04003ADF80630FFF73FFF00287D
:104318009ED0A6E7AFF30080000000000100000077
:104328001000000001000000000000000000400034
:104338002DE9F04F00234FF4807501264FF0807867
:1043480004462DED028BABB08DF807301393219303
:10435800299314950E96CDF85C80CDE91533CDE9F7
:104368001863CDE91A33CDE92253CDE92433CDE9D9
:10437800273306231C9301F085FE072808D004F193
:10438800100741F288321CA9384605F0A5FE40B155
:104398000123184684F85C302BB0BDEC028BBDE8D5
:1043A800F08F4FF0020A4FF0020B4FF0050941F26F
:1043B800883308AA1CA93846CDF89480CDF87090A7
:1043C8009FED2D8BCDE908AB4FF0000A4FF4800B21
:1043D8008DED0A8BCDE90CAB05F0EAFF0028D7D1AB
:1043E80041F2883238460EA905F076FE0028CFD172
:1043F800402341F288320DF1070138468DF8073025
:1044080005F0D4FE0028C3D141F288330EA902AAD0
:104418003846CDF83890CDF85C809FED197B8DED4E
:10442800048BCDE906AB8DED027B05F0C1FF034699
:104438000028ADD1CDF870904FF00109CDF89480E7
:104448004FF00008219308AA29931CA93846229501
:10445800CDE92333CDE9273341F288338DED0A8B3B
:10446800CDE90CABCDE9088905F0A2FF002893D06F
:10447800304684F85C608FE71000000001000000FF
:1044880040000000400000002DE9F043624CA3B05A
:104498000D46046001F0F6FD072800F0A9802868A1
:1044A80023466968AA6807C31E46AB8926F8043BF9
:1044B8003046257B677B05F0F1FDE0B9574B012DB0
:1044C8004FF00108E061236114BF4FF480134FF4EB
:1044D8000003C4E9058893FAA3F3B3FA83F34FF40E
:1044E8008079013BC4F82490C4E90B00304623626C
:1044F80005F068FD38B10122134684F85C2018469F
:1045080023B0BDE8F08366230B90139041F2883204
:1045180006A90693CDE90C90CDE90E00CDE911006E
:10452800304605F0D9FD0028E5D1992341F28832BB
:1045380006A93046069305F0CFFD0028DBD10523F8
:104548001C9019906A4614934FF08073219014A917
:104558001D9341F288339FED2A7BCDE91A90CDE96E
:104568001F008DED007B9FED287B30468DED027B93
:104578009FED277B8DED047B05F01AFF0028BAD14B
:1045880029462046FFF748FE0028B4D12046FFF709
:10459800CFFE03460028AED1002FB0D11893304685
:1045A8000027002606AA14A9CDF86890CDE91F3384
:1045B800EB2314934FF440631B934FF4005317936A
:1045C8004FF440431C93A0231693062319934FF0EE
:1045D800805321934FF04073CDE906671D9305F092
:1045E8005FFF034600288AD0434684F85C8086E74C
:1045F80001230322184684F85C2023B0BDE8F08329
:104608000000000001000000100000000100000090
:104618000000000000004000B0F7062400500052DF
:104628002DE9F04F8FB0414B0024026800AF9A4249
:104638007C63C7E90944C7E90B4403D03C37BD464E
:10464800BDE8F08F3A4B40F609213A48EB46D3F8DB
:10465800D42007F11C0607F1220A4FF0020942F4A0
:1046680080424FF00308C3F8D420D3F8D42002F4D2
:104678008042BA60BA68D3F8E02042F04002C3F83A
:10468800E020D3F8E02002F04002FA60FA68D3F89C
:10469800E02042F02002C3F8E020D3F8E02002F046
:1046A80020023A613A69D3F8E02042F01002C3F8D8
:1046B800E020D3F8E02002F010027A617A69D3F89A
:1046C800E02042F00202C3F8E020D3F8E030F861BD
:1046D80003F002033984BB61174B7B60BB697B68BD
:1046E80053F8040F7B6001F061FE7B68054618688B
:1046F80001F064FE16F8013B786207F124012846B0
:10470800C7F830807B63C7E90A9403F0F7FD564584
:10471800E5D100225C20114602F074FD5C2002F015
:10472800AFFD3C37DD46BD46BDE8F08F0050005276
:10473800004402580A0A09090CF80624114B0268B9
:104748009A4200D07047104A70B5D2F8D4300F4C56
:1047580023F4804304F11806C2F8D43054F8040F47
:1047680001F024FE0546206801F028FE014628468F
:1047780003F004FFB442F1D15C20BDE8704002F0C0
:104788008DBD00BF00500052004402580CF80624AA
:10479800014805F011BF00BFC0F70624084B1A1DD9
:1047A800981D03F1080110B49C1C9A6603F10A02D3
:1047B800C3E91834C3E91B015DF8044B5A67704715
:1047C800B0F7062438B5036871B9026A00F1280504
:1047D80000F5AC74012A0CBF002140218BBB1D4B96
:1047E8005722C0F858310DE0426A00F1C00500F5C3
:1047F800E874012A0CBF00214021EBB1164B5A2264
:10480800C0F8D03100232046C4E901214FF480527A
:104818004FF48061636262614FF48042C4E90331FE
:104828004FF48073C4E906234FF40033236202F087
:104838009BFE58B1FFBEFEE7084B5822C0F8D031A6
:10484800E0E7074B5922C0F85831DBE7C5E92044B7
:10485800A56338BD100002407000024028000240E5
:10486800580002402DE9F043821D05468BB0031D18
:1048780005F10A010830CDE9052305F10C02AB6901
:10488800CDE907010992002B3DD0EB69B3FA83F813
:104898004FEA58180123022205AE0AAF4FF0060965
:1048A8000393CDE9012356F8044B2B7922789342E0
:1048B80016D02B68F3B1012B02D1F2B10A2304936D
:1048C800204601F07BFD03462046009301F06EFD73
:1048D800694603F013FDBE42E5D10BB0BDE8F08395
:1048E800697963789942E4D1B8F1000FF3D02B6865
:1048F800002BE0D1CDF81090E2E76378022B14BFCB
:104908000A230823DBE74FF00108C3E7534A03688B
:10491800934230B505468BB055D02032934252D0E1
:104928004F4A934204D02032934201D00BB030BD9D
:104938004C4C4D48D4F8E03043F00103C4F8E03063
:10494800D4F8E03003F001030593059BD4F8E03078
:1049580043F00803C4F8E030D4F8E03003F008036B
:104968000693069BD4F8E03043F04003C4F8E030E7
:10497800D4F8E03003F040030793079BD4F8F030F5
:1049880043F40003C4F8F030D4F8F03003F4000323
:104998000893089BFFF766FFD4F8D830296843F0DE
:1049A80001032F4A3048C4F8D830891AD4F8D830CF
:1049B80018BF012103F001030993099B0BB0BDE85F
:1049C8003040FFF7FFBE274C2848D4F8E03043F0CA
:1049D8000103C4F8E030D4F8E03003F00103009399
:1049E800009BD4F8E03043F01003C4F8E030D4F86A
:1049F800E03003F010030193019BD4F8E03043F05A
:104A08004003C4F8E030D4F8E03003F040030293E8
:104A1800029BD4F8F03043F48003C4F8F030D4F8A3
:104A2800F03003F480030393039BFFF71BFFD4F8D4
:104A3800D830296843F00103084A0C48C4F8D83034
:104A4800891AD4F8D83018BF012103F00103049360
:104A5800049B0BB0BDE83040FFF7B4BE04580140DA
:104A6800045C01400044025884FA062428F806240D
:104A7800014803F0F1B800BF80F90624014803F0AB
:104A8800EBB800BFF8F90624014803F0E5B800BF09
:104A9800DCFB0624014803F0DFB800BF54FC062401
:104AA8001A4A0368934210B40BD02032934208D0BC
:104AB800174A934216D02032934213D05DF8044B24
:104AC8007047144B0022D3F85442C3F85822002CE4
:104AD800F4D0D3F84802D3E9931223465DF8044B87
:104AE800520818470B4B0022D3F8B044C3F8B4243B
:104AF800002CE3D0D3F8AC24D3F8A814D3F8A4043A
:104B0800520823465DF8044B184700BF045801407B
:104B1800045C014028F80624184A0368934210B43C
:104B28000BD02032934208D0154A934217D0203236
:104B3800934214D05DF8044B7047124BD3E9942488
:104B48005208C3F85822002CF4D0D3E99201234626
:104B580001EB820100EB82005DF8044B1847094B1A
:104B6800D3F8AC24D3F8B0445208C3F8B424002CCA
:104B7800E0D0D3F8A814D3F8A404E8E70458014017
:104B8800045C014028F806242DE9F04F0C684FF426
:104B98001776754F87B004FB06F6012C07EB060A5B
:104BA800C0F800A000F3A0800D468E464FF0000824
:104BB800D44669A3D3E9002369A1D1E90001CDE96D
:104BC800022306ABCAF8508203EB8403CDE9040143
:104BD80053F810BC53F8083CCAE992880193BEE820
:104BE8000F00ACE80F00BEE80F00ACE80F00019B17
:104BF8009EE80300CAF828B0CAF8C0308CE8030061
:104C08002B69042B0CD8DFE803F0737D8791030030
:104C18004FF41773554A03FB04739A64C3F8E020F2
:104C2800AA692B6A002A43D0002B4FF4177308BFD8
:104C3800022203FB047318BF0322DA6201221A63FB
:104C4800EA696B6A002A40D1191E4FF4177318BF1E
:104C5800012103FB0473C3E931126B69022B05D8E8
:104C6800434A12F80380434A52F823904FF41773CB
:104C780006F128004246494603FB047400233844E1
:104C880063646363E365C4F8DC30C4F8CC30C4F80B
:104C9800F430C4E90F33C4E91533C4E93533C4E942
:104CA8003B33022307F02AFD002849D0FFBEFEE768
:104CB800191E4FF4177318BF012103FB0473C3E9CE
:104CC8000B12EA696B6A002ABED0002B4FF41773E7
:104CD80008BF022203FB047318BF0322C3F8C420D1
:104CE8000122C3F8C820B8E7012007B0BDE8F08F5B
:104CF8004FF417734FF4FA5203FB04739A64C3F822
:104D0800E0208DE74FF417734FF47A5203FB0473D6
:104D18009A64C3F8E02083E74FF417734FF4FA421C
:104D280003FB04739A64C3F8E02079E74FF4177320
:104D38004BF6803203FB04739A64C3F8E0206FE7F4
:104D480006F1C000022342464946384407F0D6FC23
:104D58000028CAD0FFBEFEE704580140045C0140A9
:104D680024580140245C014028F8062400770100FB
:104D78005C470108604701080068704770B504681F
:104D880082B015460E46C4F85032C4E99212069A0B
:104D9800C4F85422A269012A26D0626A012A9AB26A
:104DA80011D0294604F1C000019207F063FD236A7F
:104DB800019A012B10D0294604F1280007F05AFD6A
:104DC800002002B070BD04F1C000019207F0E4FDBC
:104DD800236A019A012BEED1314604F1280007F02D
:104DE800DBFD002002B070BD226A012A9AB211D000
:104DF800294604F12800019207F03CFD636A019AF4
:104E0800012B10D0294604F1C00007F033FD002023
:104E180002B070BD04F12800019207F0BDFD636A7D
:104E2800019A012BEED1314604F1C00007F0B4FD20
:104E3800002002B070BD00BF03681B69042B05D8B1
:104E4800044A02EB830393ED000A70479FED020AC0
:104E5800704700BF6C47010800803B470368D3F8E0
:104E68005802704770B50446554800234FF48065D2
:104E7800C4F8A8004020C4F8CC301646C4F828016D
:104E880094F89801C4F8B0300028C4F82C31C4F85C
:104E98003C3114BF4FF480700020C4F84431C4F88A
:104EA800C4004FF44030C4F83051C4F8C800C4F806
:104EB80040014448C4E92D35C4E92F33C4E94D33D2
:104EC8006368C4F82001072B0BD8DFE803F03A43E6
:104ED8004C555E67700451225223C4F8AC20C4F8C4
:104EE800243181B9BEB994F8983153B1D4F8A810D7
:104EF800E2690B6823F008030B60136843F01003A2
:104F08001360002070BD04F1A805284602F02CFBB0
:104F180048B1FFBEFEE704F59075284602F024FB71
:104F280040B1FFBEFEE704F11C03C4F89450C4F876
:104F3800E030D7E704F11C03C4F89050C4F85831A6
:104F4800D1E729222A23C4F8AC20C4F82431002947
:104F5800C8D0D8E72B222C23C4F8AC20C4F82431BD
:104F68000029BFD0CFE72D222E23C4F8AC20C4F8E7
:104F780024310029B6D0C6E73F224023C4F8AC202C
:104F8800C4F824310029ADD0BDE741224223C4F83A
:104F9800AC20C4F824310029A4D0B4E74722482320
:104FA800C4F8AC20C4F8243100299BD0ABE74F22C9
:104FB8005023C4F8AC20C4F82431002992D0A2E7C9
:104FC8008800024070040240D0F894301B682DE934
:104FD800F0415968C0B0D0F89C5106464942D0F813
:104FE800A842D5F80031C9B2D5F80421013B0C1B01
:104FF8009B1AD5F80421E4B2DBB2A34294BFD218BD
:105008001219C5F80421D5F80431B3F5807F05D904
:10501800D5F80431A3F58073C5F80431C6F8A81291
:10502800D5F80021A718B7F5807F23D9C2F5807875
:10503800A918D2F5807222D1444502D0B4EB0802F7
:105048002CD1FFB206F5D078C5F80071D6F8A402C5
:105058002518B5F5807F8CBFC0F5807727461FBB24
:10506800BC4201D0E21B0ED1EDB2C6F8A45240B04A
:10507800BDE8F081A9182246002CE2D0A046684677
:105088000FF0B8F9D8E70DEB0701EDB240460FF085
:10509800B1F9C6F8A45240B0BDE8F0810DEB0800A4
:1050A80029460FF0A7F9CCE740443A4669460FF085
:1050B800A1F9D5E72DE9F04F814683B00E46174692
:1050C8001D4600F11C04204607F0F4FF2028FAD101
:1050D800012200214846FFF7C5FE8046002835D149
:1050E800EFF31083019372B6DFF888B00C9B99F93F
:1050F8000420DFF884A0DFF88490CBF800300D9B03
:1051080089F80020CAF800300DB11846A847BAB28D
:105118003146204607F0B6FD30B9019B03B962B6A7
:10512800404603B0BDE8F08F0023CBF80030CAF842
:105138000030FF2389F800300C9B8BB101210D98BA
:1051480088469847019B002BEAD1E8E70C9B53B1AE
:1051580001210D9888469847404603B0BDE8F08F76
:105168004FF00108D9E74FF00108404603B0BDE809
:10517800F08F00BFEC140724F4140724F01407245C
:105188002DE9F04F814683B00E4617461D4600F1C3
:105198001C04204607F08EFF2028FAD100220121A6
:1051A8004846FFF75FFE8046002835D1EFF31083AD
:1051B800019372B6DFF888B00C9B99F90420DFF8E8
:1051C80084A0DFF88490CBF800300D9B89F800208C
:1051D800CAF800300DB11846A847BAB23146204681
:1051E80007F0A2FD30B9019B03B962B6404603B08F
:1051F800BDE8F08F0023CBF80030CAF80030FF2359
:1052080089F800300C9B8BB101210D98884698478E
:10521800019B002BEAD1E8E70C9B53B101210D98C3
:1052280088469847404603B0BDE8F08F4FF0010824
:10523800D9E74FF00108404603B0BDE8F08F00BF42
:10524800EC140724F4140724F01407242DE9F04182
:105258000D4682B0EFF3108772B6002948D1FF23BC
:10526800254A264C237013682BB10020294610606C
:10527800234A1068984723781B0625D5DFF88880CD
:105288000025204E444605E001351C3406F52B76F2
:10529800092D19D0A369012B1BD0002BF4D121684B
:1052A80030460029F0D06369019323690093E368CD
:1052B8002289FFF765FF0028E6D1C5EBC50508EB95
:1052C800850348F82500586007B962B602B0BDE802
:1052D800F08161680029D7D063693046019323695A
:1052E8000093E3682289FFF7E5FE0028CCD1E4E7C4
:1052F80009F0DCF9B3E700BFEC140724F014072425
:10530800F4140724E0FC06244C000024F0B5002324
:1053180087B0022204460493CDE902230278436849
:105328000B2A4FEA430523D1A2780B2A02D1002089
:1053380007B0F0BD47496B1C474851F82330457802
:1053480001781878E678884267D0824275D0D87894
:1053580003F1030C81426CD0824276D0987903F134
:10536800060C88426DD0824231D0012007B0F0BDD2
:10537800384B394853F8253001784678187894F82E
:1053880001C081423BD082423FD0D87803F1030E5E
:1053980081423ED0824248D0987903F1060E884275
:1053A8003FD08242E1D1DB796345DED173469B78F9
:1053B8002046059300F0FAFF0646204600F0FEFF5F
:1053C800034601A93046019302F098FFACE7DB7968
:1053D800B342CAD1634602349B782046059300F055
:1053E800E5FF034620461C4600F0E8FF034601A9F6
:1053F8002046019302F082FF002007B0F0BD93F829
:1054080001E0B645C1D08242BFD158786045BCD1D1
:10541800CDE71F79B742BDD1BEE75F78AF4294D1DF
:1054280095E7D979B142BCD19FE718796045B3D1E6
:10543800BCE71F79AF428FD190E75878B04286D148
:10544800C9E7D979A9428ED18FE71879B04285D1B9
:10545800C0E700BF64010024600100247E4A03689D
:105468009342F0B58FB000F0E480A2F54C4293422D
:1054780000F0E18002F58062934200F0DE8002F5E0
:105488008062934200F0DB8002F58062934200F074
:10549800DA8002F54442934200F0D380A2F51C4220
:1054A800934200F0D28002F58062934200F0CF80F0
:1054B8006A4A934240F0CD8008264FF42B77684C17
:1054C80006FB07F7E519A87800F080FFE05D00F01B
:1054D8007DFF6B68082B13D8DFE803F03B4957655D
:1054E80073818F9D05005F4BD3F8F42042F00802CA
:1054F800C3F8F420D3F8F43003F008030893089BAA
:105508002846FFF703FF012801D1FFBEFEE74FF44D
:105518002B730EAA544F0DF1240C03FB0644636849
:1055280002EB43050FCFACE80F003B680022ACF854
:105538000030114635F9140C01F064FE63680EAAB8
:1055480002EB430333F9140C0FB0BDE8F04001F04F
:1055580097BE444BD3F8F02042F01002C3F8F02075
:10556800D3F8F03003F010030093009BC8E73D4BDD
:10557800D3F8E82042F40032C3F8E820D3F8E83042
:1055880003F400330193019BBAE7364BD3F8E820C4
:1055980042F48022C3F8E820D3F8E83003F48023EB
:1055A8000293029BACE72F4BD3F8E82042F4002289
:1055B800C3F8E820D3F8E83003F400230393039BEF
:1055C8009EE7284BD3F8E82042F48012C3F8E8207D
:1055D800D3F8E83003F480130493049B90E7214B3D
:1055E800D3F8F02042F02002C3F8F020D3F8F030CE
:1055F80003F020030593059B82E71A4BD3F8E820B4
:1056080042F08042C3F8E820D3F8E83003F0804342
:105618000693069B74E7134BD3F8E82042F0004248
:10562800C3F8E820D3F8E83003F000430793079B5A
:1056380066E7002641E701263FE702263DE7032605
:105648003BE7052639E7042637E7062635E7072628
:1056580033E700239B78FFDE00100140000C005860
:10566800E0FC062400440258904601082DE9F04F5A
:1056780091B0002301223F490DF1240A09938B467A
:1056880001F11C09CAF8143001F13808CDF800A05E
:1056980001F15407CDF804A001F17006CDF808A077
:1056A80001F18C05CDF80CA001F1A804CDF810A0EB
:1056B80001F1C40ECDF814A001F1E00CCAE90133E0
:1056C800CAE903330F92FF222B4BCDE906AA1A70C1
:1056D800BAE80F00ABE80F009AE80700009B8BE8D8
:1056E80007009B46BBE80F00A9E80F009AE80700EF
:1056F800019B89E807009946B9E80F00A8E80F0060
:105708009AE80700029B88E807009846B8E80F0067
:105718000FC79AE80700039B87E807001F460FCFCB
:105728000FC69AE80700049B86E807001E460FCEBE
:105738000FC59AE80700059B85E807001D460FCDB1
:105748000FC49AE80700069B84E807001C460FCCA4
:10575800AEE80F00079B9AE807001C468EE8070092
:105768000FCCACE80F009AE807008CE8070011B0EE
:10577800BDE8F08F4C000024F014072410B50A4C43
:1057880004F11C0007F0A4FBE369DB69DB0602D522
:1057980094F8983103B910BD2046FFF715FCE3696A
:1057A80010221A6210BD00BFE0FC062410B50B4C95
:1057B80004F5327007F08CFBD4F8C832DB69DB06DD
:1057C80002D594F8443403B910BD04F52B70FFF7E3
:1057D800FBFBD4F8C83210221A6210BDE0FC062484
:1057E80010B50B4C04F2745007F072FBD4F8743502
:1057F800DB69DB0602D594F8F03603B910BD04F571
:10580800AB60FFF7E1FBD4F8743510221A6210BDC3
:10581800E0FC062410B50B4C04F5026007F058FBB9
:10582800D4F82038DB69DB0602D594F89C3903B933
:1058380010BD04F60400FFF7C7FBD4F82038102287
:105848001A6210BDE0FC062410B50B4C04F6CC20FF
:1058580007F03EFBD4F8CC3ADB69DB0602D594F8B6
:10586800483C03B910BD04F52B60FFF7ADFBD4F835
:10587800CC3A10221A6210BDE0FC062410B50B4C7D
:1058880004F6785007F024FBD4F8783DDB69DB0692
:1058980002D594F8F43E03B910BD04F65C50FFF746
:1058A80093FBD4F8783D10221A6210BDE0FC062460
:1058B80010B50A4C04F1240007F00AFB636ADB699F
:1058C800DB0602D594F8A03103B910BD04F1080035
:1058D800FFF77AFB636A10221A6210BDE00C0724F6
:1058E80010B50B4C04F5347007F0F2FAD4F8D03246
:1058F800DB69DB0602D594F84C3403B910BD04F516
:105908002D70FFF761FBD4F8D03210221A6210BD57
:10591800E00C072410B50B4C04F27C5007F0D8FAC1
:10592800D4F87C35DB69DB0602D594F8F83603B980
:1059380010BD04F5AC60FFF747FBD4F87C351022A6
:105948001A6210BDE00C072410B5EFF3108472B68C
:10595800084B1A78120602D504B962B610BD1B7836
:105968004FF42B70044A5BB200FB032002F074F979
:10597800F2E700BFF014072488FD062410B5EFF302
:10598800108472B6084B1A78120602D504B962B6AA
:1059980010BD1B784FF42B70044A5BB200FB032048
:1059A80002F05AF9F2E700BFF014072400FE0624BB
:1059B8000021FFF74BBC00BF0021FFF747BC00BF29
:1059C8000121FFF743BC00BF2DE9F0414F684FF4B8
:1059D8002B76DFF8D8808E4607FB06F60C46082F94
:1059E80006EB08050560AC46BEE80F00ACE80F0002
:1059F8009EE807008CE8070002D8EB68022B02D962
:105A08000120BDE8F081AA68032AF9D8296902298A
:105A1800F6D868690228F3D80131DFF894C01C363B
:105A280089005CF827704644EF61A46929631B4923
:105A38002C6251F82330EB62194B53F82230194A83
:105A4800AB62002352F8202030466B646A62C5E9D5
:105A58000D33C5E90F3308F029FE0028D0D10146DF
:105A6800304608F07BFE0028CAD10146304608F0CF
:105A7800C3FE0028C4D1304608F052FE0028BFD12A
:105A8800094A85F89801C2F80401C5F89C21C2F8B2
:105A98000001C5F8A402C5F8A002B2E7A4470108AE
:105AA800B0470108C047010840410030E0FC062427
:105AB80080470108524B01224FF4965003F580515C
:105AC80030B40024C3F86025C3F86C25C3F86445D6
